:020000040800F2
:1000000080E2002075840008850600088706000845
:10001000890600088B0600088D0600080000000015
:100020000000000000000000000000008F06000833
:1000300091060008000000004B9D0108D5840008CF
:100040008F8400088F8400088F840008B582000820
:100050008F8400088F8400088F8400088F84000834
:100060008F8400088F8400088F8400088F84000824
:100070008F8400088F8400088F8400088F84000814
:100080008F8400088F8400088F8400088F84000804
:100090008F8400088F8400088F8400088F840008F4
:1000A0008F8400088F8400088F8400088F840008E4
:1000B0008F840008EB610008616200088F840008EB
:1000C0008F8400088F8400088F8400088F840008C4
:1000D0008F8400084F8700088F8400088F840008F1
:1000E0008F8400088F8400088F8400088F840008A4
:1000F0008F8400088F8400088F8400088F84000894
:100100008F840008E17A0008276400088F840008C3
:100110008F8400088F8400088F8400088F84000873
:100120008F8400088F8400088F8400088F84000863
:1001300000F002F800F076F80AA090E8000C824483
:100140008344AAF10107DA4501D100F06BF8AFF260
:10015000090EBAE80F0013F0010F18BFFB1A43F0A5
:100160000103184770040400900404000A444FF08F
:10017000000C10F8013B13F0070408BF10F8014B06
:100180001D1108BF10F8015B641E05D010F8016B4B
:10019000641E01F8016BF9D113F0080F1EBF10F8AF
:1001A000014BAD1C0C1B09D16D1E58BF01F801CBD2
:1001B000FAD505E014F8016B01F8016B6D1EF9D555
:1001C0009142D6D37047000000230024002500266A
:1001D000103A28BF78C1FBD8520728BF30C148BFAA
:1001E0000B607047662934F08C85642917F0C2844F
:1001F000782917F0FB84732918F05182002070478A
:100200001FB518F037FB04000020002133F06EFD0D
:10021000401C60600020002133F052FDE0601FBDF3
:1002200010B510BD18F09AFC1146FFF7E9FF00F079
:10023000A2F818F019FF03B4FFF7F2FF03BC08F0AF
:10024000CBF900000EB502AD08241FF031F80022F2
:10025000052311461046CDE900450FF0FCFDF4E7FB
:10026000C84819F0BDFFC8481AF0C6F8C7481AF0C8
:100270003FF9C7481BF056F8C64820F0D7FCC648DF
:1002800023F0B2FAC54823F06DFEC54823F08EFF77
:10029000C44824F05FF8C44824F0E6FAC34824F0C8
:1002A000F1FBC34824F030FC11F029F814F01BFED8
:1002B000C049086064201DF0DDF8FBE7F0B58BB0A5
:1002C0000BF0B3FB09A80EF084FA012109AA084635
:1002D0000BF043FE0121402009F01EF81DF026FF1F
:1002E0000BF078FCB44D2978491C29700BF076FC92
:1002F00000240327CDE9064709AE4FF4805040F2B1
:1003000099110896CDE90210AC4A05940720CDE971
:10031000000204942346AFF2B702A848A8A1C83847
:100320000EF0EDFCCDE9064780200C210896CDE9C2
:100330000210A74A04200594CDE90002049400238A
:10034000AFF2FF02A248A3A1C8380EF0D8FC0BF010
:1003500041FC2978491E11F0FF01297008D1A049FC
:10036000098829B10BF03AFC0CF070F90BB0F0BD24
:100370000BF034FCFAE78AB008F0BAF84FF4A0604A
:1003800008F0FEFA4FF41654204608F041F92046D2
:1003900008F08CF900F07EFF07F020FF00F026FA4D
:1003A00007F0F2FD04F0CAF8002008F019FA012065
:1003B00008F016FA032140F2833005F072FF40F294
:1003C000CF2140F2E73005F022FF08F011F808F0E5
:1003D00013F84FF6FF7441F61F41204605F0D5FF94
:1003E00013F01CFE7F4D01227FA1286812F0E6F871
:1003F00001227EA1686812F0E1F810250D281BD1BA
:100400007BA0CDE900501023C82296211E2004F0C5
:100410006CF82A02012175A013F0D0F818B37BA064
:10042000CDE900501023C82296211E2004F05DF86B
:100430004FF47A7008F0A1F8A623F02296211E202E
:10044000009403F03BFE17F067FA14F0BCF80028A4
:1004500035D075A0CDE900501023C82246211E20BA
:1004600004F043F81AE073A012F0F3FF74A0D7E78A
:100470007AA0CDE900501023C8225A211E2004F092
:1004800034F8C82008F079F85623E6225A211E20B5
:10049000009403F013FEC82008F06FF806F0CBFCC0
:1004A0000028E5D150A310225A211E2013F041FF4D
:1004B0004FF4FA6008F061F8204600F0B8FE05F04D
:1004C000CEFD09A80BF0DBFB0BF084FB3A4C217846
:1004D000491C21700BF082FB002006AB09AA032106
:1004E000059083E807004FF480626623CDE902326D
:1004F0005E4D04900346AFF23B22CDE900155CA1AE
:10050000A5F1C8000EF0FBFB0BF064FB2178491E3F
:1005100011F0FF01217007D13149098821B10BF099
:100520005DFB0CF093F801E00BF058FB09A80BF011
:10053000D2FDFEE70EB5514D00244FF496712846CA
:1005400009F0BFFD07F073FFAA464D4D4FF4167931
:1005500002AE0827A0460A344C4500D100240022F0
:10056000CDE900760A23114610460FF074FCA1B2C3
:10057000504609F0A6FD28780006ECD585F80080E5
:10058000E9E70000519F0108FDA2010845A4010808
:10059000A5AE0108250B020881330208613A020862
:1005A000294102089D4202085D4602085949020895
:1005B000A14A0208906F002038010020902F0020EF
:1005C000456D77696E64656D6F207461736B0000B3
:1005D000C82C0020546F756368207461736B000031
:1005E000FC000020780F0020303A0000313A000073
:1005F000466C617368204469736B20466F726D614D
:100600007474696E672E2E2E00000000466C6173B4
:1006100068204469736B20466F726D617420457267
:10062000726F722000000000466F6E742045727277
:100630006F722100313A414C49454E54454B000000
:10064000466C617368204469736B20466F726D61FC
:10065000742046696E6973680000000053442043AB
:10066000617264204661696C65642100001C002091
:100670007374617274207461736B00000004004035
:10068000610000207047FEE7FEE7FEE7FEE77047E7
:10069000704700000CB500224C480092019201689E
:1006A00041F4803101604FF4A063016801F400312E
:1006B00001910099491C0091019911B90099994241
:1006C000F3D10168890333D50121019140490A68BA
:1006D00042F010020A600A6822F003020A600A6807
:1006E00042F002020A60416841604168416041682D
:1006F00041F480614160416821F47C1141604168AE
:1007000041F4E8114160016841F0807101600168C5
:100710008901FCD5416821F003014160416841F045
:10072000020141604168C1F381010229FAD10CBD87
:1007300001920CBD254810B5016841F0010101602E
:100740004168244A114041600168234A1140016018
:10075000016821F480210160416821F4FE014160BB
:100760004FF41F018160FFF795FF1C494FF00060B7
:10077000086010BD154A10B55068194B10F00C01F7
:10078000184803D0042901D0082901D0036012E0E1
:100790005168536801F470114FF0020413F4803F64
:1007A00004EB914102D053689B0301D50E4B00E04E
:1007B0000B4B5943016051680A4AC1F30311121DE2
:1007C000515C0268CA40026010BD00000010024087
:1007D000002002400000FFF8FFFFF6FE08ED00E0F9
:1007E00000127A000400002000093D0008B5012134
:1007F000042008F09AFD7020ADF8000048208DF824
:10080000030069464F4808F0A8FB08BD70B54E4C80
:100810004C4E012508B1257001E0207828B1402117
:10082000304608F0F0FB012805D04021304608F0A2
:10083000EAFB38B107E00A2007F080FE00202070B4
:10084000012070BD2570002070BD70B53E4C3D4E3E
:10085000012508B1657001E0607820B120213046A3
:1008600008F0D1FB30B12021304608F0CCFB012844
:1008700007D007E00A2007F061FE00206070022028
:1008800070BD6570002070BD70B52F4C2D4E0125D8
:1008900008B1A57001E0A07820B11021304608F021
:1008A000B2FB30B11021304608F0ADFB012807D073
:1008B00007E00A2007F042FE0020A070032070BD70
:1008C000A570002070BD70B51F4C1E4E012508B1EB
:1008D000E57001E0E07820B12021304608F093FB7C
:1008E00030B12021304608F08EFB012807D007E008
:1008F0000A2007F023FE0020E070022070BDE570A2
:10090000002070BD70B5104C0E4E012508B1257148
:1009100001E0207920B11021304608F074FB30B19D
:100920001021304608F06FFB012807D007E00A20AD
:1009300007F004FE00202071032070BD2571002007
:1009400070BD00000008014018000020FE4908802A
:100950007047FD49891C08807047FB4808B5801C1A
:100960000088ADF80000BDF8000008BDF64A108010
:10097000901C01807047F44910B50880052007F0ED
:10098000DDFDBDE81040E8E7F048EF490089088048
:100990007047ED49891C08807047C0F34511C20AB1
:1009A000C00200EB4110104480B27047401EC0B23C
:1009B000FCD270472DE9F04FE44F0B463A46BD8814
:1009C0000C0ADFF884B391895289A5F513464FEAE2
:1009D000102C0BF1020A413E1DD0A5F5A646103E93
:1009E00019D03E46BE4696F806903688A5F5D04703
:1009F000A6EB0008A8F10108043F17D0A5F5C857D9
:100A0000633F28D0A5F5AA477646103F51D0B9F1EB
:100A1000010F63D064E0ABF800205246AAF800C092
:100A2000C0B2AAF80000ABF800100FE0B9F1010F56
:100A300001D11FFA88F0ABF80020050A5246AAF847
:100A40000050C0B2AAF80000ABF800101480D8B271
:100A50001080BDE8F08FB9F1000F1BD0ABF800207B
:100A60005246AAF800C0C0B2AAF80000761E300AAA
:100A7000AAF80000F0B21080ABF800101146148004
:100A8000D8B21080BEF80200401E020A0A80C0B22E
:100A90000880DEE71FFA88F0ABF8002000265246F7
:100AA000AAF80060AAF80060060AAAF80060C0B2BE
:100AB000E1E7ABF80020AAF800C0521CABF8002018
:100AC000C0B2AAF80000ABF80010AAF80040491C18
:100AD000ABF80010D8B2AAF80000BAE71FFA88F005
:100AE00001461046FFF742FFB089BDE8F04F1946B6
:100AF0003CE7F0B5954E002425463288824202D963
:100B000072888A4201D80020F0BDFFF753FFB088F9
:100B100049F241378C4B41F6631C45F2103145F2E6
:100B20001052B84208D0A0F5D04EBEF1040E03D04A
:100B3000884201D0604502D14FF02E0E06E090426F
:100B400002D14FF4385E01E04FF0220EA3F800E02E
:100B5000A0F51343203B03D10220401EC0B2FCD2BB
:100B6000FFF7FBFEB3886345CED00220401EC0B223
:100B7000FCD2FFF7F2FE8446B088B84203D0884228
:100B800001D090420CD10220401EC0B2FCD2FFF72F
:100B9000E4FE05460CF0FF004FF6FF7303EA002465
:100BA000B088A0F51343253B1FD0A0F58A43353B01
:100BB0001BD0A0F58A43313B17D0A0F53543053B48
:100BC00013D0A0F54543053B0FD0B84203D088426F
:100BD00001D090420BD14FEADC204FEAC020A10A9D
:100BE00040EA411040EAD520F0BD6046F0BDBDE8C6
:100BF000F0406046D1E6554853498088A0F513423D
:100C0000413A13D0A0F5D042043A0FD0A0F5A64245
:100C1000103A0BD0A0F5C852633A07D0A0F5AA420B
:100C2000103A05D040F2731107209FE6292001E019
:100C30004FF4245008807047444843498088A0F509
:100C40001342413A12D0A0F5D042043A0ED0A0F59A
:100C5000A642103A0AD0A0F5C852633A06D0A0F5D1
:100C6000AA42103A04D0002107207FE6282001E0A4
:100C70004FF4205008807047F0B5344D00232946CA
:100C8000AA79898846F6040741F66316012A01D03D
:100C90002AB11DE0B9421BD0B14202D118E0B142E5
:100CA00016D1082814D2DFE800F00406080A0C0E5A
:100CB000101206200CE007200AE0042008E00520BE
:100CC00006E0012004E0002002E0032000E0022012
:100CD000A1F5134C45F2103245F21054BCF1410C11
:100CE00007D0B94205D0914203D0A14201D0B14210
:100CF0007AD1082812D2DFE800F0110406080A0CA5
:100D00000E1080230AE0402308E0C02306E02023E1
:100D100004E0602302E0A02300E0E023A14202D12E
:100D20004FF4585000E03620914205D0A14203D044
:100D3000B14201D043F00803B94201D143F00203AC
:100D40001946FFF713FE03E0FE07006CB06F0020AA
:100D5000AA88B2420AD098062888698802D58842B3
:100D600002D303E0884201D929806880FE48811CB3
:100D7000A2426A89028021D100230B80531C038088
:100D800000230B80931C03802B885B1E1C0A0C80A5
:100D9000D21C0280DAB20A80AA89028000230B806A
:100DA000531C038000230B80931C03806B885B1E05
:100DB0001C0A0C80D21C0280D8B212E000220A80E9
:100DC0000A802A88521E130A0B80D2B20A80AA898E
:100DD00002800020088008806888401E020A0A807D
:100DE000C0B20880F0BDFFE7082812D2DFE800F0AB
:100DF000040608110A0C0E1030230AE0102308E044
:100E0000202306E0382304E0282302E0182300E032
:100E10000823BDE8F040032043F48051A6E500B567
:100E2000FFF7C8FDFFF7B0FDD048CF49891C008807
:100E3000088000BD2DE9F04FDFF834839346424629
:100E40000B46B8F804500C0ADFF81CA39189060A77
:100E50005289A5F513470AF10209413F19D0A5F5BA
:100E6000A647103F15D0A5F5AA47103F1CD047460E
:100E7000A5F5C85CBE793F883F1A7F1EBCF1630CA4
:100E800027D0A5F5D04CBCF1040C3AD0012E4AD0A5
:100E90004AE0AAF800204A46A9F80060C0B2A9F8C2
:100EA0000000AAF800103AE0AAF80020A9F80060B3
:100EB000521CAAF80020C0B2A9F80000AAF800103D
:100EC000A9F80040491CAAF80010D8B2A9F80000FF
:100ED00033E006B9B8B2AAF80020050A4A46A9F8D4
:100EE0000050C7B2A9F80070A9F80050C0B2A9F824
:100EF0000000AAF80010A9F80040D8B2A9F8000034
:100F00000DE0012E00D1B8B2AAF80020050A4A4629
:100F1000A9F80050C0B2A9F80000AAF80010148087
:100F2000D8B2108009E0B8B201461046FFF71EFDA6
:100F3000B8F80C001946FFF719FDB8F80810AAF820
:100F40000010A9F800B084E5874A10B5BE211180D1
:100F5000941C0521218033F036F84FF06632854B22
:100F600033F080F833F002F8208001202080FF2049
:100F7000208000202080208010BD2DE9F04F7C498A
:100F80002A232B24898845F2105A4FF4305B4FF402
:100F9000285E4FF448754FF0F00C49F241394FF498
:100FA000A07745F210364FF4F07280B170484FF0E0
:100FB0000108494580F806800780A0F802C001D0EA
:100FC000B1423ED12C2505814381848157E0684898
:100FD0004FF00008494580F80680A0F800C047801F
:100FE00006D0A1F5D04CBCF1040C01D0B1420CD11B
:100FF0002C2505814381A1F5D0438481043B01D098
:10100000B14244D10780428041E0514507D1A0F868
:1010100008B0A0F80AE04FF42C5181810EE0A1F550
:10102000C856633E06D02221018120214181212121
:1010300081812CE02C2101814481838102804580C3
:1010400025E0A1F5D04CBCF1040C09D051450BD1E1
:10105000A0F808B0A0F80AE04FF42C53838120E0F8
:101060002C250581448109E0A1F5C85CBCF1630C25
:1010700011D0222303812123438120238381A1F5E1
:10108000D043043B01D0B14201D102804780BDE88A
:10109000F04F0020F0E54FF02C0CA0F808C0438181
:1010A000848105804280EAE72DE9FC4F04469146A1
:1010B0004844401E86B2C818401E83B2009004EB1C
:1010C0000900401EC0F3072EDFF8A4C000980D46AB
:1010D000C0F3072B6046BCF804204FEA1128818931
:1010E0004089A2F513474FEA142A413F10D0A2F5D8
:1010F000A647103F0CD0A2F5D047043F08D09CF87B
:10110000067041F6631C0197012F13D1624511D17E
:10111000154F3880B81CA0F800A0E2B20280A0F8F9
:1011200000E0F2B202803980A0F80080E9B20180CC
:10113000594626E00E4F62453F8827D1A7EB0902AA
:10114000121B094C009B92B29BB22080160AA01C75
:101150000680D6B206804A44521E160A0680D2B2D3
:101160000280218008E00000FE07006C1E000020C5
:10117000B06F002066660440A0F80080E9B20180EC
:10118000190A0180D9B20180BDE8FC8FA2F5A04CFC
:10119000BCF5A26C1FD0019801283FD0B44621466F
:1011A0002E4650204FF051094FF052085327FFF7B9
:1011B000DDFB61464846FFF7D9FB31464046FFF765
:1011C000D5FB19463846FFF7D1FB29462046BDE836
:1011D000FC4FFFF7EFBBFE4A1080971CA7F800A05A
:1011E00000F1010CA2F800C0E4B23C80841C148021
:1011F000A7F800E0C01C1080F0B238801180A7F87A
:101200000080481C1080E8B23880881C1080A7F845
:1012100000B0C91C1180D8B23880B5E7B81B401E99
:1012200086B2381B9C46401E294683B2B9E72DE999
:10123000F043E84F0646002438887D884543B88847
:10124000A0F5D041043902D1B879012808D0002195
:101250000846FFF7AFFBFFF797FBDD48801C15E062
:101260000020B8714FF02A09A7F80A904FF02B0818
:10127000A7F80C800146FFF79DFB0120B871A7F885
:101280000A80A7F80C90E6E70680641CAC42FBD30A
:10129000BDE8F0832DE9F04F01210E029FB03046EA
:1012A00008F03AF801214FF4B47008F03EF84FF01E
:1012B0000108ADF83C8010258DF83F5003208DF8D3
:1012C0003E0047460FA9C44807F047FE4CF2337072
:1012D000ADF83C0018248DF83F4003208DF83E0007
:1012E0000FA9BE4807F039FE4FF68070ADF83C00FC
:1012F0008DF83F4003208DF83E000FA9B84807F055
:101300002CFE41F20100ADF83C008DF83F40032077
:101310008DF83E000FA9B34807F01FFE00200F21F3
:10132000CDE918011A901B901C901D90032110907C
:10133000CDE91101CDE91607149006211590CDE9EC
:101340000010CDE90205139004902902CDE90801AF
:101350000690059007908900CDE90A010C9017A826
:101360000D9010A80E90684607F096FB012106200C
:1013700007F0C7FC322007F000F90020FFF7FBFA66
:10138000944A934C49F2413CA51C908046F6040ACD
:1013900045F2103B45F210514FF6FF79FF2804D378
:1013A000484502D0B0F5134F6DD1D3202080FFF710
:1013B000D4FA9080FFF7D1FA9080FFF7CEFA09EACD
:1013C00000204F469080FFF7C8FA9388184390801A
:1013D000604558D0BF202080FFF7BFFA9080FFF70C
:1013E000BCFA9080FFF7B9FA9080FFF7B6FA07EAE7
:1013F00000209080FFF7B1FA938818439080504501
:1014000041D0D4202080FFF7A8FA9080FFF7A5FAFA
:101410009080FFF7A2FA07EA00209080FFF79DFA7C
:1014200093881843908058452DD04FF45A4020801F
:10143000FFF793FA90804FF45B402080FFF78DFA1E
:1014400007EA002090804FF45C402080FFF785FA87
:10145000938818439080B0F5004F7DD0884212D019
:10146000A1202080FFF779FA9080FFF776FA07EA4B
:1014700000209080FFF771FA93881843A0F5AE43DF
:101480009080613B69D080B2604567D1CF202080D9
:1014900000202880C120288030202880ED20208056
:1014A0006420288003202880122028808120288022
:1014B000E820208085202880102028807A2028801D
:1014C000CB202080392028802C20288000202880D4
:1014D0003420288002202880F720208020202880A7
:1014E000EA202080002028802880C02020801B2027
:1014F0002880C120208001202880C5202080302025
:1015000028802880C7202080B7202880362020808F
:10151000482028803A20208055202880B120208033
:10152000002028801A202880B62020800A202880C9
:10153000A2202880F22020800020288026202080E1
:1015400001202880E02020800F2028802A20288069
:1015500028202880082002E05AE054E05AE0288041
:101560000E2028800820288054202880A920288048
:10157000432028800A2028800F20288000202880EF
:10158000288028802880E1202080002028801520C5
:1015900028801720288007202880112028800620F6
:1015A00028802B202880562028803C202880052059
:1015B0002880102028800F2028803F202880288025
:1015C0000F2028802B2020800020288028800BE0FE
:1015D000FE07006CB06F0020000C014000140140B9
:1015E0000018014000200140012028803F20288071
:1015F0002A2020800020288028802880EF20288032
:101600001120208073E041F66310908002F0D0BC7E
:101610009180FDE3504571D111202080142006F007
:10162000ACFFD020208007202880422028801D2069
:101630002880D1202080002028801A20288009209E
:101640002880D22020800120288022202880C020CD
:101650002080102028803B20288000202880022025
:10166000288011202880C520208003202880C820C1
:101670002080002028802520288021202880052007
:101680002880002028800A202880652028802520A6
:10169000288077202880502028800F202880002054
:1016A0002880F820208001202880FE202080002033
:1016B00028800220288020202080362020800820BA
:1016C00028803A202080552028802B202080002050
:1016D00028802880012028803F2028802A20208000
:1016E00000202880288001202880DF202880782082
:1016F00006F043FF292001F030BCFFE758457DD1BB
:10170000ED20208001202880FE202880EE202080EF
:10171000DE20288021202880F120208001202880C0
:10172000DF20208010202880C42020808F20288067
:10173000C620208000202880E22028802880288061
:10174000BF202080AA202880B02020800D20288063
:10175000002028800D20288000202880112028804B
:10176000002028801920288000202880212028801F
:10177000002028802D202880002028803D202880DF
:10178000002028805D202880002028805D2028807F
:1017900000202880B1202080802028800020288000
:1017A0008B202880002028809620288000202880F8
:1017B000B22020800020288028800220288000205D
:1017C00028800320288000202880B320208000204B
:1017D00028802880288028802880288028802880C9
:1017E00028802880288028802880288028802880B9
:1017F0002880288028802880288000E0FEE3288038
:1018000028802880B42020808B20288000202880F9
:101810009620288000202880A12028800020288071
:10182000B5202080022028800020288003202880E6
:10183000002028800420288000202880B6202080D6
:10184000002028802880B720208000202880288041
:101850003F202880002028805E20288000202880CB
:1018600064202880002028808C2028800020288068
:10187000AC20288000202880DC20288000202880C0
:101880007020288000202880902028800020288038
:10189000EB20288000202880DC2028800020288061
:1018A000B820208000202880288028802880288058
:1018B000288028802880BA202080242028800020AA
:1018C000288028802880C120208020202880002097
:1018D00028805420288000202880FF202880002095
:1018E0002880C22020800A20288000202880042010
:1018F000288000202880C32020803C2028800020D1
:1019000028803A2028800020288039202880002044
:10191000288037202880002028803C202880002034
:10192000288036202880002028803220288000202F
:1019300028802F202880002028802C20288000202C
:101940002880292028800020288026202880002028
:10195000288024202880002028802420288000201F
:10196000288023202880002028803C2028800020F8
:1019700028803620288000202880322028800020DF
:1019800028802F202880002028802C2028800020DC
:1019900028802920288000202880262028800020D8
:1019A00028802420288000202880242028800020CF
:1019B00028802320288000202880C42020806220C6
:1019C000288000202880052028800020288084206E
:1019D000288000202880F0202880002028801820DF
:1019E000288000202880A42028800020288018201B
:1019F00028800020288050202880002028800C206B
:101A0000288000202880172028800020288095200A
:101A1000288000202880F320288000202880E620CD
:101A2000288000202880C5202080322028800020A7
:101A300028804420288000202880652028800020DD
:101A40002880762028800020288088202880002078
:101A50002880C62020802020288000202880172071
:101A60002880002028800120288000202880C7208E
:101A7000208000202880288028802880C82020807E
:101A800000202880288028802880C92020800020ED
:101A90002880288028802880288028802880288006
:101AA00028802880288028802880288028802880F6
:101AB000E020208016202880002028801C202880FC
:101AC000002028802120288000202880362028809F
:101AD000002028804620288000202880522028804E
:101AE0000020288064202880002028807A202880F8
:101AF000002028808B2028800020288099202880A2
:101B000000202880A820288000202880B920288054
:101B100000202880C420288000202880CA20288017
:101B200000202880D220288000202880D9202880EA
:101B300000202880E020288000202880F3202880B2
:101B400000202880E1202080162028800020288086
:101B50001C20288000202880222028800020288027
:101B600036202880002028804520288000202880DA
:101B7000522028800020288064202880002028808F
:101B80007A202880002028808B2028800020288030
:101B90009920288000202880A820288000202880E4
:101BA000B920288000202880C42028800020288098
:101BB000CA20288000202880D22028800020288069
:101BC000D820288000202880E0202880002028803D
:101BD000F320288000202880E22020800520288013
:101BE000002028800B202880002028801B202880AF
:101BF000002028803420288000202880442028804D
:101C0000002028804F202880002028806120288004
:101C100000202880792028800020288088202880A3
:101C2000002028809720288000202880A620288057
:101C300000202880B720288000202880C22028800B
:101C400000202880C720288000202880D1202880DC
:101C500000202880D620288000202880DD202880B1
:101C600000202880F320288000202880E320208086
:101C700005202880002028800A2028800020288035
:101C80001C202880002028803320288000202880E5
:101C90004420288000202880502028800020288090
:101CA000622028800020288078202880002028803A
:101CB00088202880002028809720288000202880E5
:101CC000A620288000202880B72028800020288097
:101CD000C220288000202880C7202880002028805B
:101CE000D120288000202880D5202880002028802E
:101CF000DD20288000202880F320288000202880F4
:101D0000E4202080012028800020288001202880D5
:101D10000020288002202880002028802A20288077
:101D2000002028803C202880002028804B2028800C
:101D3000002028805D2028800020288074202880B2
:101D4000002028808420288000202880932028805C
:101D500000202880A220288000202880B32028800E
:101D600000202880BE20288000202880C4202880D1
:101D700000202880CD20288000202880D3202880A3
:101D800000202880DD20288000202880F320288063
:101D900000202880E52020800020288028802880BE
:101DA00028800220288000202880292028800020E8
:101DB00028803C202880002028804B20288000207C
:101DC00028805D2028800020288074202880002022
:101DD00028808420288000202880932028800020CC
:101DE0002880A220288000202880B320288000207E
:101DF0002880BE20288000202880C4202880002041
:101E00002880CD20288000202880D320288000E052
:101E100026E100202880DC20288000202880F32074
:101E2000288000202880E6202080112028800020A3
:101E300028803420288000202880562028800020F8
:101E40002880762028800020288077202880002085
:101E50002880662028800020288088202880002074
:101E600028809920288000202880BB2028800020FE
:101E70002880992028800020288066202880002043
:101E80002880552028800020288055202880002088
:101E9000288045202880002028804320288000209A
:101EA00028804420288000202880E72020803220BD
:101EB0002880002028805520288000202880762037
:101EC0002880002028806620288000202880672025
:101ED00028800020288067202880002028808720F4
:101EE0002880002028809920288000202880BB207E
:101EF00028800020288099202880002028807720B2
:101F00002880002028804420288000202880562017
:101F1000288000202880232028800020288033204B
:101F20002880002028804520288000202880E82064
:101F30002080002028802880992028800020288068
:101F40008720288000202880882028800020288062
:101F50007720288000202880662028800020288084
:101F60008820288000202880AA202880002028801F
:101F7000BB202880002028809920288000202880ED
:101F80006620288000202880552028800020288076
:101F90005520288000202880442028800020288088
:101FA0004420288000202880552028800020288078
:101FB000E9202080AA2028800020288028802880EE
:101FC0002080AA202880CF20208000202880288000
:101FD00028802880288028802880288028802880C1
:101FE0002880288028802880288028802880F02049
:101FF0002080002028805020288000E02EE0002053
:10200000288028802880F320208000202880F92044
:102010002080062028801020288029202880002069
:1020200028803A202080552028801120208064209C
:1020300006F0A3FA29202080352020800020288067
:1020400051202080FF202880532020802C202880B1
:1020500055202080822028802C20FCE388427DD1DE
:102060004FF4704355211846FEF780FC4FF20105EE
:10207000AA212846FEF77AFC6E1C52213046FEF754
:1020800075FCAF1C08213846FEF770FC4FF2040CBB
:1020900001216046FEF76AFC0D214FF43040FEF747
:1020A00065FC0D214BF20100FEF760FC0D214BF2A7
:1020B0000200FEF75BFC4FF4364A34215046FEF72F
:1020C00055FC34214BF20160FEF750FC34214BF2F9
:1020D0000260FEF74BFC4FF4314B0D215846FEF7E2
:1020E00045FC0D214BF20110FEF740FC0D214BF297
:1020F0000210FEF73BFC34214FF43740FEF736FC6C
:1021000034214BF20170FEF731FC34214BF20270A6
:10211000FEF72CFC00214FF43240FEF727FC002193
:102120004BF20120FEF722FC00214BF20220FEF7C9
:102130001DFC24214FF43840FEF718FC24214BF6F7
:102140000100FEF713FC24214BF60200FEF70EFC03
:1021500001214FF43F40FEF709FC00E0FEE30F21B0
:102160004FF43340FEF702FC0F214BF20130FEF733
:10217000FDFB0F214BF20230FEF7F8FB34214FF448
:102180003940FEF7F3FB34214BF60110FEF7EEFB6E
:1021900034214BF60210FEF7E9FB08214FF43540DD
:1021A000FEF7E4FB08214BF20150FEF7DFFB0821AC
:1021B0004BF20250FEF7DAFB03214FF44240FEF7E8
:1021C000D5FB24214FF43A40FEF7D0FB24214BF6F7
:1021D0000120FEF7CBFB24214BF60220FEF7C6FBC5
:1021E00000214FF43C40FEF7C1FB78214BF6014043
:1021F000FEF7BCFB00214BF60240FEF7B7FB0021C7
:102200004FF43D40FEF7B2FB78214BF60150FEF74C
:10221000ADFB00214BF60250FEF7A8FB00214FF466
:102220003E40FEF7A3FB64214BF60160FEF79EFBE8
:1022300000214FF45140FEF799FB33214DF201107C
:10224000FEF794FB00214DF20210FEF78FFB3421C4
:102250004DF20310FEF78AFB00214DF20410FEF749
:1022600085FB3A214DF20510FEF780FB00214DF26F
:102270000610FEF77BFB4A214DF20710FEF776FBB6
:1022800000214DF20810FEF771FB5C214DF20910A0
:10229000FEF76CFB00214DF20A10FEF767FB81216F
:1022A0004DF20B10FEF762FB00214DF20C10FEF711
:1022B0005DFBA6214DF20D10FEF758FB00214DF2FB
:1022C0000E10FEF753FBE5214DF20F10FEF74EFB0B
:1022D00001214DF21010FEF749FB13214DF21110B0
:1022E000FEF744FB01214DF21210FEF73FFB542193
:1022F0004DF21310FEF73AFB01214DF21410FEF7D8
:1023000035FB82214DF21510FEF730FB01214DF215
:102310001610FEF72BFBCA214DF21710FEF726FB15
:1023200002214DF21810FEF721FB00214DF2191089
:10233000FEF71CFB02214DF21A10FEF717FB0121DC
:102340004DF21B10FEF712FB02214DF21C10FEF79E
:102350000DFB34214DF21D10FEF708FB02214DF25A
:102360001E10FEF703FB67214DF21F10FEF7FEFA69
:1023700002214DF22010FEF7F9FA84214DF22110CE
:10238000FEF7F4FA02214DF22210FEF7EFFAA42133
:102390004DF22310FEF7EAFA02214DF22410FEF767
:1023A000E5FAB7214DF22510FEF7E0FA02214DF2D1
:1023B0002610FEF7DBFACF214DF22710FEF7D6FAF2
:1023C00002214DF22810FEF7D1FADE214DF229103C
:1023D000FEF7CCFA02214DF22A10FEF7C7FAF221DD
:1023E0004DF22B10FEF7C2FA02214DF22C10FEF72F
:1023F000BDFAFE214DF22D10FEF7B8FA03214DF281
:102400002E10FEF7B3FA10214DF22F10FEF7AEFAA0
:1024100003214DF23010FEF7A9FA33214DF23110AD
:10242000FEF7A4FA03214DF23210FEF79FFA6D2158
:102430004DF23310FEF79AFA00214FF45240FEF7A6
:1024400095FA33214DF20120FEF790FA00214DF26A
:102450000220FEF78BFA34214DF20320FEF786FAB4
:1024600000214DF20420FEF781FA3A214DF20520B9
:10247000FEF77CFA00214DF20620FEF777FA4A219A
:102480004DF20720FEF772FA00214DF20820FEF708
:102490006DFA5C214DF20920FEF768FA00214DF239
:1024A0000A20FEF763FA81214DF20B20FEF75EFA57
:1024B00000214DF20C20FEF759FAA6214DF20D2015
:1024C000FEF754FA00214DF20E20FEF74FFAE521F7
:1024D0004DF20F20FEF74AFA01214DF21020FEF7CF
:1024E00045FA13214DF21120FEF740FA01214DF279
:1024F0001220FEF73BFA54214DF21320FEF736FA74
:1025000001214DF21420FEF731FA82214DF21520FF
:10251000FEF72CFA01214DF21620FEF727FACA2108
:102520004DF21720FEF722FA02214DF21820FEF795
:102530001DFA00214DF21920FEF718FA02214DF282
:102540001A20FEF713FA01214DF21B20FEF70EFAB6
:1025500002214DF21C20FEF709FA34214DF21D2014
:10256000FEF704FA02214DF21E20FEF7FFF9672163
:102570004DF21F20FEF7FAF902214DF22020FEF75E
:10258000F5F984214DF22120FEF7F0F902214DF2F8
:102590002220FEF7EBF9A4214DF22320FEF7E6F905
:1025A00002214DF22420FEF7E1F9B7214DF225205A
:1025B000FEF7DCF902214DF22620FEF7D7F9CF21F4
:1025C0004DF22720FEF7D2F902214DF22820FEF726
:1025D000CDF9DE214DF22920FEF7C8F902214DF296
:1025E0002A20FEF7C3F9F2214DF22B20FEF7BEF9A7
:1025F00002214DF22C20FEF7B9F9FE214DF22D20DB
:10260000FEF7B4F903214DF22E20FEF7AFF91021A9
:102610004DF22F20FEF7AAF903214DF23020FEF7EC
:10262000A5F933214DF23120FEF7A0F903214DF237
:102630003220FEF79BF96D214DF23320FEF796F91B
:1026400000214FF45340FEF791F933214DF2013050
:10265000FEF78CF900214DF20230FEF787F93421A4
:102660004DF20330FEF782F900214DF20430FEF7FF
:102670007DF93A214DF20530FEF778F900214DF24F
:102680000630FEF773F94A214DF20730FEF76EF976
:1026900000214DF20830FEF769F95C214DF2093056
:1026A000FEF764F900214DF20A30FEF75FF981214F
:1026B0004DF20B30FEF75AF900214DF20C30FEF7C7
:1026C00055F9A6214DF20D30FEF750F900214DF2DB
:1026D0000E30FEF74BF9E5214DF20F30FEF746F9CB
:1026E00001214DF21030FEF741F913214DF2113066
:1026F000FEF73CF901214DF21230FEF737F9542173
:102700004DF21330FEF732F901214DF21430FEF78D
:102710002DF982214DF21530FEF728F901214DF2F5
:102720001630FEF723F9CA214DF21730FEF71EF9D5
:1027300002214DF21830FEF719F900214DF219303F
:10274000FEF714F902214DF21A30FEF70FF90121BC
:102750004DF21B30FEF70AF902214DF21C30FEF754
:1027600005F934214DF21D30FEF700F902214DF23A
:102770001E30FEF7FBF867214DF21F30FEF7F6F82A
:1027800002214DF22030FEF7F1F884214DF2213084
:10279000FEF7ECF802214DF22230FEF7E7F8A42113
:1027A0004DF22330FEF7E2F802214DF22430FEF71D
:1027B000DDF8B7214DF22530FEF7D8F802214DF2B1
:1027C0002630FEF7D3F8CF214DF22730FEF7CEF8B2
:1027D00002214DF22830FEF7C9F8DE214DF22930F2
:1027E000FEF7C4F802214DF22A30FEF7BFF8F221BD
:1027F0004DF22B30FEF7BAF802214DF22C30FEF7E5
:10280000B5F8FE214DF22D30FEF7B0F803214DF260
:102810002E30FEF7ABF810214DF22F30FEF7A6F860
:1028200003214DF23030FEF7A1F833214DF2313063
:10283000FEF79CF803214DF23230FEF797F86D2138
:102840004DF23330FEF792F800214FF45440FEF77A
:102850008DF8332100E080E34DF20140FEF786F869
:1028600000214DF20240FEF781F834214DF2034081
:10287000FEF77CF800214DF20440FEF777F83A218C
:102880004DF20540FEF772F800214DF20640FEF7CA
:102890006DF84A214DF20740FEF768F800214DF22D
:1028A0000840FEF763F85C214DF20940FEF75EF840
:1028B00000214DF20A40FEF759F881214DF20B40FC
:1028C000FEF754F800214DF20C40FEF74FF8A62118
:1028D0004DF20D40FEF74AF800214DF20E40FEF792
:1028E00045F8E5214DF20F40FEF740F801214DF289
:1028F0001040FEF73BF813214DF21140FEF736F879
:1029000001214DF21240FEF731F854214DF21340EF
:10291000FEF72CF801214DF21440FEF727F8822132
:102920004DF21540FEF722F801214DF21640FEF758
:102930001DF8CA214DF21740FEF718F802214DF29A
:102940001840FEF713F800214DF21940FEF70EF87B
:1029500002214DF21A40FEF709F800E0FFE20121E2
:102960004DF21B40FEF702F802214DF21C40FDF72C
:10297000FDFF34214DF21D40FDF7F8FF02214DF21D
:102980001E40FDF7F3FF67214DF21F40FDF7EEFFFC
:1029900002214DF22040FDF7E9FF84214DF2214054
:1029A000FDF7E4FF02214DF22240FDF7DFFFA421F5
:1029B0004DF22340FDF7DAFF02214DF22440FDF7EE
:1029C000D5FFB7214DF22540FDF7D0FF02214DF292
:1029D0002640FDF7CBFFCF214DF22740FDF7C6FF84
:1029E00002214DF22840FDF7C1FFDE214DF22940C2
:1029F000FDF7BCFF02214DF22A40FDF7B7FFF2219F
:102A00004DF22B40FDF7B2FF02214DF22C40FDF7B5
:102A1000ADFFFE214DF22D40FDF7A8FF03214DF241
:102A20002E40FDF7A3FF10214DF22F40FDF79EFF32
:102A300003214DF23040FDF799FF33214DF2314033
:102A4000FDF794FF03214DF23240FDF78FFF6D211A
:102A50004DF23340FDF78AFF00214FF45540FDF75A
:102A600085FF33214DF20150FDF780FF00214DF22B
:102A70000250FDF77BFF34214DF20350FDF776FF46
:102A800000214DF20450FDF771FF3A214DF205503F
:102A9000FDF76CFF00214DF20650FDF767FF4A215C
:102AA0004DF20750FDF762FF00214DF20850FDF78F
:102AB0005DFF5C214DF20950FDF758FF00214DF2FA
:102AC0000A50FDF753FF81214DF20B50FDF74EFFE9
:102AD00000214DF20C50FDF749FFA6214DF20D509B
:102AE000FDF744FF00214DF20E50FDF73FFFE521B9
:102AF0004DF20F50FDF73AFF01214DF21050FDF756
:102B000035FF13214DF21150FDF730FF01214DF239
:102B10001250FDF72BFF54214DF21350FDF726FF05
:102B200001214DF21450FDF721FF82214DF2155085
:102B3000FDF71CFF01214DF21650FDF717FFCA21CA
:102B40004DF21750FDF712FF02214DF21850FDF71C
:102B50000DFF00214DF21950FDF708FF02214DF243
:102B60001A50FDF703FF01214DF21B50FDF7FEFE49
:102B700002214DF21C50FDF7F9FE34214DF21D509B
:102B8000FDF7F4FE02214DF21E50FDF7EFFE672126
:102B90004DF21F50FDF7EAFE02214DF22050FDF7E5
:102BA000E5FE84214DF22150FDF7E0FE02214DF2B9
:102BB0002250FDF7DBFEA4214DF22350FDF7D6FE97
:102BC00002214DF22450FDF7D1FEB7214DF22550E0
:102BD000FDF7CCFE02214DF22650FDF7C7FECF21B6
:102BE0004DF22750FDF7C2FE02214DF22850FDF7AD
:102BF000BDFEDE214DF22950FDF7B8FE02214DF257
:102C00002A50FDF7B3FEF2214DF22B50FDF7AEFE38
:102C100002214DF22C50FDF7A9FEFE214DF22D5060
:102C2000FDF7A4FE03214DF22E50FDF79FFE10216B
:102C30004DF22F50FDF79AFE03214DF23050FDF773
:102C400095FE33214DF23150FDF790FE03214DF2F8
:102C50003250FDF78BFE6D214DF23350FDF786FEAD
:102C600000214FF45640FDF781FE33214DF2016003
:102C7000FDF77CFE00214DF20260FDF777FE342166
:102C80004DF20360FDF772FE00214DF20460FDF786
:102C90006DFE3A214DF20560FDF768FE00214DF210
:102CA0000660FDF763FE4A214DF20760FDF75EFE08
:102CB00000214DF20860FDF759FE5C214DF20960DC
:102CC000FDF754FE00214DF20A60FDF74FFE812111
:102CD0004DF20B60FDF74AFE00214DF20C60FDF74E
:102CE00045FEA6214DF20D60FDF740FE00214DF29C
:102CF0000E60FDF73BFEE5214DF20F60FDF736FE5D
:102D000001214DF21060FDF731FE13214DF21160EB
:102D1000FDF72CFE01214DF21260FDF727FE542134
:102D20004DF21360FDF722FE01214DF21460FDF714
:102D30001DFE82214DF21560FDF718FE01214DF2B6
:102D40001660FDF713FECA214DF21760FDF70EFE67
:102D500002214DF21860FDF709FE00214DF21960C5
:102D6000FDF704FE02214DF21A60FDF7FFFD01217F
:102D70004DF21B60FDF7FAFD02214DF21C60FDF7DC
:102D8000F5FD34214DF21D60FDF7F0FD02214DF2FD
:102D90001E60FDF7EBFD67214DF21F60FDF7E6FDBC
:102DA00002214DF22060FDF7E1FD84214DF221600A
:102DB000FDF7DCFD02214DF22260FDF7D7FDA421D5
:102DC0004DF22360FDF7D2FD02214DF22460FDF7A4
:102DD000CDFDB7214DF22560FDF7C8FD02214DF272
:102DE0002660FDF7C3FDCF214DF22760FDF7BEFD44
:102DF00002214DF22860FDF7B9FDDE214DF2296078
:102E0000FDF7B4FD02214DF22A60FDF7AFFDF2217E
:102E10004DF22B60FDF7AAFD02214DF22C60FDF76B
:102E2000A5FDFE214DF22D60FDF7A0FD03214DF221
:102E30002E60FDF79BFD10214DF22F60FDF796FDF2
:102E400003214DF23060FDF791FD33214DF23160E9
:102E5000FDF78CFD03214DF23260FDF787FD6D21FA
:102E60004DF23360FDF782FD55211846FDF77EFDDA
:102E7000AA212846FDF77AFD52213046FDF776FD5E
:102E800008213846FDF772FD00216046FDF76EFD12
:102E9000CC215846FDF76AFD00214BF20110FDF7E9
:102EA00065FD05215046FDF761FD70214FF4374067
:102EB000FDF75CFD70214BF20170FDF757FD01211C
:102EC0004FF43840FDF752FD03214BF60100FDF7AA
:102ED0004DFD03214BF60200FDF748FD03214BF6A3
:102EE0000300FDF743FD02214FF43C40FDF73EFD9A
:102EF00000214BF60140FDF739FD00214BF6024061
:102F0000FDF734FDD0214FF44940FDF72FFD02219C
:102F10004CF60110FDF72AFD50214CF60210FDF78A
:102F200025FD50214CF60310FDF720FD50214CF6F5
:102F30000410FDF71BFD00214FF45450FDF716FD62
:102F400055214FF46850FDF711FD4FF48850208053
:102F5000782005F0F3FA4FF424502080FEE3A0F52A
:102F600013414FF4E06B4FF4274A25392ED0A0F5DA
:102F7000134140F2077728397DD0A0F513414FF473
:102F8000887A203978D0A0F51341313975D0A0F571
:102F9000A841083972D0A0F5A8514FF4407A0539FC
:102FA0006DD0A0F5354105396AD0A0F54541053908
:102FB00067D0A0F58A4131397ED0A0F58A413539F4
:102FC0007BD0A0F5C851633978D0C7E747F6F00148
:102FD000E520FDF7CBFC31460120FDF7C7FC594643
:102FE0000220FDF7C3FC41F230010320FDF7BEFCD7
:102FF00000210420FDF7BAFC40F202210820FDF771
:10300000B5FC00210920FDF7B1FC00210A20FDF7E5
:10301000ADFC00210C20FDF7A9FC00210D20FDF7DF
:10302000A5FC00210F20FDF7A1FC00211020FDF7D9
:103030009DFC07211120FDF799FC00211220FDF7CE
:1030400095FC00211320FDF791FC00210720FDF7DE
:103050008DFC41F290611020FDF788FC40F22721A1
:103060001120FDF783FC9D211220FDF77FFC4FF41A
:10307000C851132006E082E03FE1E5E1BCE258E3FD
:10308000FDE3FDE3FDF772FC25212920FDF76EFC31
:103090000D212B20FDF76AFC07213020FDF766FC8F
:1030A00040F203313120FDF761FC03213220FDF7AE
:1030B0005DFC40F2062102E0FEE3FEE3FEE3352084
:1030C000FDF754FC08213620FDF750FC40F2064184
:1030D0003720FDF74BFC4FF441713820FDF746FCDB
:1030E00007213920FDF742FC40F202613C20FDF748
:1030F0003DFC08213D20FDF739FC00215020FDF763
:1031000035FCEF215120FDF731FC00215220FDF765
:103110002DFC40F23F115320FDF728FC5146602062
:10312000FDF724FC01216120FDF720FC00216A202D
:10313000FDF71CFC00218020FDF718FC00218120F8
:10314000FDF714FC00218220FDF710FC00218320F4
:10315000FDF70CFC00218420FDF708FC00218520F0
:10316000FDF704FC10219020FDF700FC4FF4C06136
:103170009220FDF7FBFB40F233110720EFE341F211
:103180008F01EC20FDF7F2FB41F23421EF20FDF737
:10319000EDFB31460120FDF7E9FB59460220FDF722
:1031A000E5FB41F230010320FDF7E0FB00210420A4
:1031B000FDF7DCFB40F202210820FDF7D7FB0021E0
:1031C0000920FDF7D3FB00210A20FDF7CFFB0121E9
:1031D0000C20FDF7CBFB00210D20FDF7C7FB0021E4
:1031E0000F20FDF7C3FB00211020FDF7BFFB0721D7
:1031F0001120FDF7BBFB00211220FDF7B7FB0021DA
:103200001320FDF7B3FB01210720FDF7AFFB3220B0
:1032100005F0B3F941F290411020FDF7A7FB40F211
:1032200027211120FDF7A2FB322005F0A6F98A2103
:103230001220FDF79BFB322005F09FF94FF4D0518F
:103240001320FDF793FB06212920FDF78FFB0D21AD
:103250002B20FDF78BFB322005F08FF90021202079
:10326000FDF784FB00212120FDF780FB322005F0D3
:1032700084F900213020FDF779FB40F20461312010
:10328000FDF774FB40F205313220FDF76FFB0021A2
:103290003520FDF76BFB40F609413620FDF766FB54
:1032A0004FF401713720FDF761FB40F20131382006
:1032B000FDF75CFB39463920FDF758FB00213C2027
:1032C000FDF754FB40F60A213D20FDF74FFB32206D
:1032D00005F053F900215020FDF748FBEF21512064
:1032E000FDF744FB00215220FDF740FB40F23F1167
:1032F0005320FDF73BFB514653E100210846FDF703
:1033000035FB31460120FDF731FB59460220FDF720
:103310002DFB41F230010320FDF728FB00210420A2
:10332000FDF724FB40F202210820FDF71FFB0021DE
:103330000920FDF71BFB00210A20FDF717FB0121E7
:103340000C20FDF713FB00210D20FDF70FFB0021E2
:103350000F20FDF70BFB322005F00FF940F20111B1
:103360000720FDF703FB322005F007F94FF48651E3
:103370001020FDF7FBFA07211120FDF7F7FA53465D
:1033800051461220FDF7F2FA4FF430611320FDF799
:10339000EDFA00212920FDF7E9FA44F210012B2073
:1033A000FDF7E4FA00215020FDF7E0FAEF2151206B
:1033B000FDF7DCFA00215220FDF7D8FA40F23F1168
:1033C0005320FDF7D3FA4FF41C516020FDF7CEFADD
:1033D00001216120FDF7CAFA00216A20FDF7C6FA33
:1033E00000218020FDF7C2FA00218120FDF7BEFAFE
:1033F00000218220FDF7BAFA00218320FDF7B6FAFA
:1034000000218420FDF7B2FA00218520FDF7AEFAF5
:1034100010219020FDF7AAFA00219220FDF7A6FACC
:1034200001219320FDF7A2FA19469520FDF79EFA97
:1034300000219720FDF79AFA00219820FDF796FACF
:1034400040F27311072088E341F21401E720FDF7F1
:103450008DFA31460120FDF789FA4FF40071022000
:10346000FDF784FA41F238010320FDF77FFA40F2BC
:1034700002210820FDF77AFA00210920FDF776FAEB
:1034800000210A20FDF772FA00210C20FDF76EFAE8
:1034900000210D20FDF76AFA00210F20FDF766FAE2
:1034A00000211020FDF762FA07211120FDF75EFAD6
:1034B00000211220FDF75AFA00211320FDF756FAD9
:1034C000C82005F05AF841F290611020FDF74EFA3D
:1034D00040F227211120FDF749FA322005F04DF87E
:1034E0000C211220FDF742FA322005F046F84FF485
:1034F00000611320FDF73AFA11212920FDF736FA71
:103500000B212B20FDF732FA322005F036F800218E
:103510002020FDF72BFA40F23F1319462120FDF73A
:1035200025FA00213020FDF721FA4FF4837421465B
:103530003120FDF71BFA00213220FDF717FA4FF476
:1035400001713520FDF712FA41F20A613620FDF7CC
:103550000DFA39463720FDF709FA21463820FDF7E4
:1035600005FA39463920FDF701FA40F202413C20C4
:10357000FDF7FCF940F60F413D20FDF7F7F900217A
:103580005020FDF7F3F9EF215120FDF7EFF900216D
:103590005220FDF7EBF919465320FDF7E7F94FF4F8
:1035A0001C516020FDF7E2F901216120FDF7DEF9F1
:1035B00000216A20FDF7DAF900218020FDF7D6F915
:1035C00000218120FDF7D2F900218220FDF7CEF9FC
:1035D00000218320FDF7CAF900218420FDF7C6F9F8
:1035E00000218520FDF7C2F910219020FDF7BEF9DA
:1035F0004FF4C0619220FDE331460120FDF7B6F99A
:1036000059460220FDF7B2F941F230010320FDF7DF
:10361000ADF900210420FDF7A9F940F207210820A7
:10362000FDF7A4F900210920FDF7A0F900210A20E7
:10363000FDF79CF900210C20FDF798F900210D20E1
:10364000FDF794F900210F20FDF790F9142004F004
:1036500094FF41F2B0611020FDF788F9012111209B
:10366000FDF784F901211720FDF780F94FF49C71D3
:103670001220FDF77BF94FF400611320FDF776F976
:1036800009212920FDF772F909212A20FDF76EF999
:103690000021A420FDF76AF900215020FDF766F90A
:1036A000EF215120FDF762F900215220FDF75EF96C
:1036B00040F23F115320FDF759F94FF41C5160209F
:1036C000FDF754F901216120FDF750F900216A202E
:1036D000FDF74CF900218020FDF748F900218120F9
:1036E000FDF744F900218220FDF740F900218320F5
:1036F000FDF73CF900218420FDF738F900218520F1
:10370000FDF734F913219020FDF730F900219220C4
:10371000FDF72CF903219320FDF728F95146952058
:10372000FDF724F940F273110720FDF71FF932204D
:1037300012E100210720FDF719F9322004F01DFFE6
:103740004FF48E711220FDF711F90121A420FDF72D
:103750000DF90F210820FDF709F900E07FE30821AA
:103760000A20FDF703F908210D20FDF7FFF839467F
:103770003020FDF7FBF807213120FDF7F7F840F284
:1037800003613220FDF7F2F85C4659463320FDF71D
:10379000EDF840F202213420FDF7E8F8022135204F
:1037A000FDF7E4F841F60F713620FDF7DFF83946F2
:1037B0003720FDF7DBF800213820FDF7D7F800218E
:1037C0003920FDF7D3F839463A20FDF7CFF800212C
:1037D0003B20FDF7CBF807213C20FDF7C7F800217F
:1037E0003D20FDF7C3F8322004F0C7FE0121072079
:1037F000FDF7BCF801211720FDF7B8F8322004F0DE
:10380000BCFE4FF4BD511020FDF7B0F840F2172177
:103810001120FDF7ABF84FF48F711220FDF7A6F8D9
:103820004FF470611320FDF7A1F800212A20FDF765
:103830009DF80A212920FDF799F84FF49F71122075
:10384000FDF794F800215020FDF790F8EF2151206A
:10385000FDF78CF800215220FDF788F840F23F1167
:103860005320FDF783F84FF41C516020FDF77EF8DC
:1038700001216120FDF77AF800216A2001E06FE064
:103880006CE1FDF773F800218020FDF76FF800214F
:103890008120FDF76BF800218220FDF767F80021F9
:1038A0008320FDF763F800218420FDF75FF80021F5
:1038B0008520FDF75BF802E01AE2D1E278E31321FC
:1038C0009020FDF753F851469220FDF74FF805215F
:1038D0009320FDF74BF800219520FDF747F80021D4
:1038E0009720FDF743F800219820FDF73FF8314677
:1038F0000120FDF73BF821460220FDF737F841F2A1
:1039000038010320FDF732F800210420FDF72EF8DE
:1039100000210C20FDF72AF800210F20FDF726F8E2
:1039200000212020FDF722F800212120FDF71EF8BC
:1039300021210720FDF71AF8142004F01EFE612152
:103940000720FDF713F8142004F017FE40F273115E
:103950000720FDF70BF8142004F00FFEA2E3F8E0B7
:1039600000210846FDF702F800210846FCF7FEFF9B
:1039700000210846FCF7FAFF00210846FCF7F6FF95
:103980000121A420FCF7F2FF142004F0F6FD4FF40F
:103990001C5421466020FCF7E9FF40F2022529462D
:1039A0000820FCF7E3FF4FF405713020FCF7DEFF41
:1039B00043F215713120FCF7D9FF40F20461322047
:1039C000FCF7D4FF40F616613320FCF7CFFF42F23C
:1039D00011213420FCF7CAFF4FF4A8513520FCF721
:1039E000C5FF48F207513620FCF7C0FF41F20741FE
:1039F0003720FCF7BBFF41F203413820FCF7B6FF4C
:103A000020213920FCF7B2FF1A219020FCF7AEFFED
:103A100000211020FCF7AAFF07211120FCF7A6FFC8
:103A200000211220FCF7A2FF00211320FCF79EFFCB
:103A3000142004F0A2FD4FF4E6611020FCF796FF7D
:103A400040F237111120FCF791FF142004F095FD8E
:103A50004FF4DC711220FCF789FF142004F08DFD77
:103A60004FF470611320FCF781FF80212A20FCF7BE
:103A70007DFF48212920FCF779FF142004F07DFD0B
:103A800031460120FCF772FF59460220FCF76EFF19
:103A900041F238010320FCF769FF29460820FCF7B2
:103AA00065FF00210A20FCF761FF00210C20FCF7D4
:103AB0005DFF00210D20FCF759FF30210E20FCF79F
:103AC00055FF00215020FCF751FFEF215120FCF75A
:103AD0004DFF00215220FCF749FF40F23F115320D7
:103AE000FCF744FF21466020FCF740FF01216120E4
:103AF000FCF73CFF00216A20FCF738FF11219020E1
:103B0000FCF734FF4FF4C0619220FCF72FFF40F226
:103B100002419320FCF72AFF02219420FCF726FFA4
:103B2000142004F02AFD01210720FCF71FFF1420B8
:103B300004F023FD61210720FCF718FF40F2731108
:103B40000720FCF713FF00212020FCF70FFF0021C6
:103B50002120FCF70BFF222100207EE100210846F6
:103B6000FCF704FF00210846FCF700FF142004F0D6
:103B700004FD00210846FCF7F9FE00210846FCF789
:103B8000F5FE00210846FCF7F1FE00210846FCF78F
:103B9000EDFE0121A420FCF7E9FE142004F0EDFC69
:103BA0004FF41C516020FCF7E1FE40F606010820AE
:103BB000FCF7DCFE40F2037319463020FCF7D6FE1A
:103BC00001213120FCF7D2FE04213220FCF7CEFE89
:103BD0004FF481713320FCF7C9FE5446514634201E
:103BE000FCF7C4FE40F203113520FCF7BFFE1F2195
:103BF0003620FCF7BBFE19463720FCF7B7FE012143
:103C00003820FCF7B3FE04213920FCF7AFFE152164
:103C10009020FCF7ABFE4FF482611020FCF7A6FE6B
:103C200040F247211120FCF7A1FE4FF4DE71122073
:103C3000FCF79CFE4FF460611320FCF797FE7820A0
:103C400004F09BFC31460120FCF790FE4FF400711C
:103C50000220FCF78BFE41F230010320FCF786FEC8
:103C600008210A20FCF782FE00210C20FCF77EFED2
:103C700020210E20FCF77AFE00210F20FCF776FEB3
:103C800000212020FCF772FE00212120FCF76EFEAF
:103C90003D212A20FCF76AFE142004F06EFC2D2141
:103CA0002920FCF763FE00215020FCF75FFE4DF257
:103CB000EF015120FCF75AFE00215220FCF756FE7E
:103CC00040F23F115320FCF751FE00216120FCF728
:103CD0004DFE00216A20FCF749FE21469220FCF7A8
:103CE00045FE05219320FCF741FE3146FFF7AABBB4
:103CF00001210020FCF73AFE0A2004F03EFC41F2CC
:103D000028611020FCF732FE0E211220FCF72EFE57
:103D100040F639211320FCF729FE0A2004F02DFC7F
:103D200040211120FCF722FE50211520FCF71EFE39
:103D30000A2004F022FC1E211220FCF717FE0A20A4
:103D400004F01BFC4FF4B1511020FCF70FFE42F6BB
:103D500039211320FCF70AFE0A2004F00EFC31463C
:103D60000120FCF703FE51460220FCF7FFFD41F263
:103D700038010320FCF7FAFD40F202210820FCF78D
:103D8000F5FD08210A20FCF7F1FD00213020FCF7A9
:103D9000EDFD40F202413120FCF7E8FD4FF4837164
:103DA0003220FCF7E3FD40F203513320FCF7DEFD47
:103DB0004FF482713420FCF7D9FD40F201313520F7
:103DC000FCF7D4FD39463620FCF7D0FD40F2053132
:103DD0003720FCF7CBFD4FF402713820FCF7C6FD0D
:103DE00040F60B713920FCF7C1FD02214120FCF7A0
:103DF000BDFD00E0D7E04FF41C516020FCF7B6FD9C
:103E000001216120FCF7B2FD4FF404719020FCF712
:103E1000ADFD4FF485719220FCF7A8FD042193209D
:103E2000FCF7A4FD3146A020FCF7A0FD01210720EE
:103E3000FCF79CFD21210720FCF798FD232107209A
:103E4000FCF794FD33210720FCF790FD40F233117D
:103E50000720FCF78BFD0021A020FCF787FD21E166
:103E600030211520FCF782FD10219A20FCF77EFD01
:103E700020211120FCF77AFD43F228411020FCF7A5
:103E800075FD02211220FCF771FD41F2380113206B
:103E9000FCF76CFD282004F070FB12210846FCF7AB
:103EA00065FD282004F069FB43F220411020FCF757
:103EB0005DFD43F238011320FCF758FD462004F065
:103EC0005CFB00213020FCF751FD40F20241312023
:103ED000FCF74CFD40F207313220FCF747FD4FF470
:103EE00041713320FCF742FD04213420FCF73EFDF4
:103EF00040F201413520FCF739FD39463620FCF708
:103F000035FD40F205313720FCF730FD4FF4C26338
:103F100019463820FCF72AFD19463920FCF726FD02
:103F200031460120FCF722FD51460220FCF71EFD20
:103F300041F230010320FCF719FD40F6080108208A
:103F4000FCF714FD08210A20FCF710FD4FF41C516A
:103F50006020FCF70BFD01216120FCF707FD4FF409
:103F60009F719020FCF702FD31469220FCF7FEFC89
:103F700031469320FCF7FAFC4FF44051A020FCF7A7
:103F8000F5FC1021A320FCF7F1FC01210720FCF730
:103F9000EDFC21210720FCF7E9FC23210720FCF799
:103FA000E5FC33210720FCF7E1FC40F233119DE6EC
:103FB000E2202080232028800220288004202880DE
:103FC000642004F0BBFAE0202080012028800A2031
:103FD00004F0D3FAE0202080032028800C2004F095
:103FE000CCFA012020800A2004F0C7FAE6202080C5
:103FF00003202880FF2028802880B02020802020D7
:104000002880002028800320288040F21F3028804C
:104010000120288040F2DF10288000202880B42072
:1040200020800420288040F21F4028800020288023
:10403000D220288000202880288028802880B62050
:104040002080022028804FF40370288000202880E0
:104050002220288009202880002028802880F02025
:1040600020800320288029202080D020208000204C
:104070002880BE20208005202880FE202880012066
:104080002880FF20288000202880B82020800F2052
:10409000288001202880BA202080012028806420E8
:1040A000FCF752FF0120FCF768FFFE49C1F8808150
:1040B0004846FDF7BCF81FB0BDE8F08F2DE9F84386
:1040C000F94D1F468046AB88089EA3F5D0400438C2
:1040D00002D1A879012807D0A2EB0800401C85B2C4
:1040E0000C46DFF8C89328E02B880846991A00246C
:1040F000AC713A462A24A3EB08036C812B27491E96
:104100005B1EAF8189B29BB20096FFF7D7FF0120FB
:10411000A8716F81AC81BDE8F88321464046FCF769
:1041200049FCFCF731FC0020494602E00E80401CAF
:1041300080B2A842FAD3641CA4B2BC42EDD9EAE72B
:104140002DE9F0478246A2EB0A00401C0E4685B2DC
:10415000981B401C87B20024DFF85093DDF82080C4
:1041600014E0301981B25046FCF724FCFCF70CFC3B
:104170000020494606E004FB050338F813200A80B6
:10418000401C80B2A842F6D3641CA4B2BC42E8D35F
:10419000BDE8F0872DE9FE4F0026A2EB000882461D
:1041A0005F1A701E35468946B8F1000F02DD4FF0E8
:1041B000010102E003D14FF00001019102E0C8F1DA
:1041C00000080190002F02DD4FF0010002E003D152
:1041D0004FF00000009002E0C7F100070090404659
:1041E000B84501DD044600E03C46601C4FF0000B82
:1041F000029015E01FFA89F11FFA8AF0FCF70FFE12
:1042000046443D44A64202DD0199361B8A44A5423C
:1042100002DD00992D1B89440BF101001FFA80FB80
:1042200002998B45E6DDBDE8FE8FF0B51C461546CC
:104230000E4607460B46FFF7ADFF3A46234631468A
:104240001046FFF7A7FF23462A4619463846FFF7D0
:10425000A1FF2A4623463146BDE8F040104699E7C3
:104260002DE9FC4F80460024154603200F46A0EBA5
:10427000450649E0781B81B208EB040A01901FFA59
:104280008AF0FCF7CCFD381B81B208EB05090090E1
:104290001FFA89F0FCF7C3FD07EB040B1FFA8BF143
:1042A0001FFA89F0FCF7BBFD07EB05091FFA89F13E
:1042B0001FFA8AF0FCF7B3FDA8EB040A1FFA89F194
:1042C0001FFA8AF0FCF7ABFDA8EB05091FFA8BF18A
:1042D0001FFA89F0FCF7A3FD019881B21FFA8AF05A
:1042E000FCF79DFD009881B21FFA89F0FCF797FD5D
:1042F000641C002E03DA06EB8406B61D04E0601B86
:1043000006EB80066D1E0A36AC42B3DDBDE8FC8FBD
:104310002DE9F84F82461F460C468B46580700D0C1
:10432000012000EBD70079084843203AC0B202F0E0
:10433000FF090026009041E00C2F10D0102F12D062
:10434000182F3ED15A4909EBC90001EB80004FF00C
:104350000008855D28060AD5564802880BE009EB5F
:1043600049005549F1E7554901EB0910EFE70A9873
:1043700028B95048428821465046FCF75BFD680644
:10438000050E4948641CA4B24088A04219D9A4EB88
:104390000B00B84209D10AF101001FFA80FA424825
:1043A0005C46018851450CD906E008F1010000F097
:1043B000FF08B8F1080FCDD3761CF6B200988642FC
:1043C000BAD3BDE8F88F0346012000E05843491EE8
:1043D000C9B2FBD270472DE9FF4F81B00027DDF84D
:1043E00038B01D46924680463C46B9464FEA5B06C9
:1043F00027E0281B401EC1B20A20FFF7E4FFBAFBEA
:10440000F0F00A21B0FBF1F201FB120027B9691E9E
:104410008C4201DA48B101273030C2B206FB048079
:1044200080B25B46CDF8009006E006FB048080B2C7
:104430005B462022CDF800900299FFF769FF641CCB
:10444000E4B2AC42D5D305B036E62DE9FF4F81B0DA
:104450008046DDF83CA00E984FF000091F469346B9
:104460004C460AF0010546083AE0381B401EC1B22E
:104470000A20FFF7A8FFBBFBF0F00A21B0FBF1F226
:1044800001FB1200B9F1000F05D1791E8C4202DA4E
:10449000C0B14FF001093030C2B206FB048080B2D7
:1044A00000950DE000802142B06F00200008006CF4
:1044B000B25803081E0000204E4E0308C2520308E3
:1044C0000E9B08E05FEA0A6006FB04800E9B80B248
:1044D000009508D530220299FFF71AFF641CE4B258
:1044E000BC42C2D3AFE72022F5E72DE9F84F0446DE
:1044F00000F0FF0810190D46DDE90A761FFA80FA70
:1045000058191FFA80F94FF0000B11E0544502D3FF
:10451000E819444685B24D450FD23B462946204610
:10452000CDF800B0FFF7F4FE04EB570084B2761C20
:104530003278A2F120005E28E8D942E74E4841696E
:1045400041F480714161816941F02001816181699B
:1045500041F040018161816941F08001816181699F
:1045600041F4807181614548016800210160026861
:1045700042F0BB320260001F026802F0FF220260BC
:10458000026842F0BB1202603D48026801600268A6
:1045900042F0BB320260001F02683A4B1A400260D0
:1045A0000268394B1A4302603848026892B20260CE
:1045B0000268374B1A430260001F026802F07F4214
:1045C00002600368334A134303603348436823F4AB
:1045D00070634360436843F430634360036803F0EF
:1045E0007F4303600368134303604FF02040016181
:1045F0004161C0F81411016941F480510161016900
:1046000041F010010161416941F44071416141692A
:104610004161416941616FF07041C0F81411016955
:1046200041F001010161704710B5002A07D04FF039
:10463000D04310F8014B5C54491C521EF7D110BDF9
:10464000002A07D04FF0D0435B5C491C00F8013BC7
:10465000521EF7D1704703B50146012201A8FFF7AA
:10466000E3FF0CBD08B5014601226846FFF7E8FFED
:104670009DF8000008BD0000001002400414014035
:104680000418014000FFFF0FBB0000B0041C0140F4
:104690000000BBBBBBBBBB000020014038B5012103
:1046A000082004F042FEC020ADF8000010208DF874
:1046B00003000320824C8DF802006946204604F076
:1046C0004CFCC021204604F0B2FC38BD70B57C48DB
:1046D000016821F070410160016841F040510160C2
:1046E000784C0120C4F89C01C4F89801042004F51A
:1046F000CC7403F023FF00256560042003F01EFF47
:10470000256070BD6E4810B5016821F070410160F0
:10471000016841F0405101606A4C0020C4F89801E2
:10472000C4F89C01042004F5CC7403F007FF0120B9
:1047300020606060BDE81040042003F0FFBE70B54B
:104740005F480024016821F070410160016841F078
:10475000004101605B4D0126C5F89C61304603F0C5
:10476000EDFEC5F89861012003F0E8FE07E0641C47
:10477000E4B2FA2C03D9FFF7C5FF012070BDD5F8CC
:104780001C010028F3D1C5F8980170BD70B54D4CDF
:104790000025C4F898514A48016821F07041016031
:1047A000016841F040510160C4F89C51022004F5B9
:1047B000CC7403F0C3FE01202060022003F0BEFE93
:1047C000256070BD70B53F4C0026C4F898613C4828
:1047D000016821F070410160016841F040510160C1
:1047E0000125C4F89C51022004F5CC7403F0A6FE08
:1047F0002560022003F0A2FE266070BD2DE9F04185
:1048000005462F48016821F070410160016841F0C0
:10481000405101602B4E0027C6F898713C464FF07E
:104820000108280602D5C6F89C8101E0C6F89C71F3
:104830006806050E022003F081FEC6F8988102206A
:1048400003F07CFEC6F89871022003F077FE641C2A
:10485000E4B2082CE5D3BDE8F0812DE9F0478146AC
:1048600017480024016821F070410160016841F09F
:1048700000410160134E254627464FF00108C6F857
:104880009871022003F05AFEC6F898816006040E63
:10489000D6F81C0108B1641CE4B2012003F04EFEFE
:1048A0006D1CEDB2082DEAD3B9F1000F04D0FFF76B
:1048B0006DFF2046BDE8F087FFF784FFF9E70000B1
:1048C000000C014000802142FFF7E8BE10B504460D
:1048D000FFF7FCFE200AA02101EB4000C0B2FFF769
:1048E0008DFFFFF72CFFE0B2FFF788FFFFF727FFF0
:1048F000FFF7ECFEA120FFF781FFFFF720FF00206C
:10490000FFF7ABFF0446FFF7FDFE204610BD70B574
:104910000D460446FFF7DAFE200AA02101EB400015
:10492000C0B2FFF76BFFFFF70AFFE0B2FFF766FFC9
:10493000FFF705FF2846FFF761FFFFF700FFFFF7CE
:10494000E1FEBDE870400A2003F017BE2DE9F041FA
:1049500016460D460746002409E0E00025FA00F05F
:10496000C1B2381980B2FFF7D2FF641CE4B2B4427E
:10497000F3D3BDE8F0812DE9F0410D46014600205A
:1049800004464E1908E00702301B401E80B2FFF7B4
:104990009DFF641C3844E4B2AC42F4D3E9E710B59F
:1049A000FF20FFF793FF55280AD05521FF20FFF77E
:1049B000AEFFFF20FFF78AFF552801D0012010BD70
:1049C000002010BD70B515460E46044608E020468E
:1049D000641CA4B2FFF77AFF6D1E06F8010BADB29E
:1049E000002DF4D170BD70B514460D46064606E0A4
:1049F00029783046FFF78BFF761CB6B26D1C641E1B
:104A0000A4B2F5D270BD000070B506460024394D41
:104A100003E0641CE4B2C82C0FD80221284604F03D
:104A2000DFFD0028F5D03146284604F095FD00242E
:104A300005E0641CE4B2C82C01D9002070BD01213E
:104A4000284604F0CDFD0028F3D0284604F086FD6A
:104A5000C0B270BD70B586B00121082004F065FCBD
:104A60000121880304F06AFC4FF46045ADF814504E
:104A700018248DF8174003201F4E8DF8160005A945
:104A8000304604F06AFA2946304604F0D0FA002095
:104A9000ADF80000ADF804004FF48271ADF80210DB
:104AA0000221ADF80610ADF80C400121ADF8081058
:104AB000ADF80E00490207200E4CADF80A10ADF813
:104AC00010006946204604F0A3FC0121204604F0B2
:104AD0001BFDFF20FFF798FF06B070BD014605489B
:104AE000028822F03802028002880A4302800121F3
:104AF00004F00ABD00380040000C0140052003F01E
:104B00001DBD9448816941F008018161816941F0CE
:104B1000800181619048016821F0F0010160016825
:104B200041F0300101608D48016821F0F001016021
:104B3000016841F03001016087480C30016841F0A4
:104B40000201016085480830016841F4007101608C
:104B5000704770B58148016821F0F001016001687B
:104B600041F0300101607E4E0120C6F8A4017D4D68
:104B7000C5F884011E2005F5C27506F5D27603F04E
:104B8000DDFC00243460052003F0D8FC2C6070BDEF
:104B900070B57248016821F0F0010160016841F0D0
:104BA000300101606F480125C0F884511E2003F0D8
:104BB000C5FC6B4C0020C4F8A401052004F5D27498
:104BC00003F0BCFC256070BD70B56448002401682A
:104BD00021F0F0010160016841F080010160604D49
:104BE0000120C5F8A4015F4EC6F8840107E0641CEB
:104BF000E4B2FA2C03D9FFF7CBFF012070BD0520EA
:104C000003F09CFCD5F824010028F0D1C6F88401FB
:104C100070BD70B5534C0025C4F884514F480168ED
:104C200021F0F0010160016841F0300101600520D0
:104C300004F5C27403F082FC4948C0F8A451052071
:104C400003F07CFC01202060052003F077FC256048
:104C500070BD70B5434C0026C4F884613F480168BC
:104C600021F0F0010160016841F030010160052090
:104C700004F5C27403F062FC39480125C0F8A45160
:104C8000052003F05BFC2560052003F057FC26603F
:104C900070BD2DE9F04705463048016821F0F0016C
:104CA0000160016841F0300101602E4E0027C6F816
:104CB0008471052003F042FCDFF8A48000244FF04B
:104CC0000109E909C8F8A4116806050EC6F884911F
:104CD000052003F033FCC6F88471052003F02EFC98
:104CE000641CE4B2082CECD3BDE8F0872DE9F04752
:104CF00082461A480024016821F0F0010160016831
:104D000041F0800101601E2003F018FC0025154EC3
:104D1000DFF84C902F464FF00108C6F8847105204B
:104D200003F00CFCC6F884816006040ED9F8240157
:104D300008B1641CE4B26D1CEDB2082DEDD3BAF1DC
:104D4000000F03D0FFF765FF2046CDE7FFF781FF97
:104D5000FAE7000000100240000C0140041C014072
:104D600000802342008021422DE9F04115460E4685
:104D700004460027FFF7EDFE7020FFF78AFFFFF7DC
:104D800023FFE0B2FFF785FFFFF71EFF002408E0D6
:104D9000305DFFF77EFFFFF717FF070003D1641CAC
:104DA000E4B2AC42F4D3FFF7F3FE3846BDE8F0813D
:104DB0002DE9F04115460F460446FFF7CAFE702064
:104DC000FFF767FFFFF700FFE0B2FFF762FFFFF7B3
:104DD000FBFEFFF7BEFE7120FFF75BFFFFF7F4FE5F
:104DE00000246E1E09E0B44201D0012000E0002042
:104DF000FFF77CFF3855641CE4B2AC42F3D3BDE846
:104E0000F041FFF7C5BE38B57448816941F08001B3
:104E100081617348016821F47F410160016841F4B8
:104E2000605101606E480830016841F440610160E2
:104E3000FFF767FE6B4D0024C5F8AC41142005F563
:104E4000D67503F09AFB01202860322003F095FB11
:104E50008DF80040012269460020FFF785FF0122FE
:104E60006946A420FFF780FF16208DF8000001227C
:104E700069468020FFF778FF0C208DF800000122A2
:104E800069468820FFF770FF02226946A120FFF7DC
:104E90008FFF9DF80000302803D19DF80100032802
:104EA00001D0012038BD43F203014FA012F018FEDB
:104EB000002038BD2DE9F1434E4F00244FF00A0980
:104EC000387882B0401CC0B2B0FBF9F209FB120185
:104ED000494DA046387009B10A2863D2012202A9BF
:104EE0000220FFF765FF9DF8080001075AD000F087
:104EF0000F00062856D2FF218140C84340F0C00071
:104F000085F820004FF00108002695F8201008FAD7
:104F100004F0014239D039480422694630F81400BF
:104F2000FFF746FF95F830009DF80010C0079DF888
:104F3000010001F00F010ED000EB012105EB440050
:104F4000C1829DF802209DF8031002F00F0201EBD0
:104F5000022181810FE000EB0120C0F5F07105EB2B
:104F6000440081819DF802209DF8031002F00F0299
:104F700001EB0221C1829DF800000821B1EB101F56
:104F800003D005EB4400C6828681641CE4B2052C84
:104F9000BBD3A9894FF0010819B9E88A08B98DF87F
:104FA00008603E709DF80800C0060ED195F82000FC
:104FB000010602D520F0800005E04FF6FF71A981BF
:104FC000E98200F0E00085F820003878F02801D967
:104FD00087F800904046BDE8FE83000000100240C4
:104FE000041C0140008023424354502049443A2588
:104FF000780D0A00220000202C0000200E66030815
:105000002DE9F04115460E4604460027FFF7A1FDA5
:105010002820FFF73EFEFFF7D7FD200AFFF739FEF5
:10502000FFF7D2FDE0B2FFF734FEFFF7CDFD00241D
:1050300008E0305DFFF72DFEFFF7C6FD070003D146
:10504000641CE4B2AC42F4D3FFF7A2FD3846BDE8DD
:10505000F08108B500218DF800108DF80100B948E5
:105060009DF80020435C491C1A44C9B28DF8002009
:10507000B829F5D3D0B2C043401C8DF80000B82247
:10508000B04948F24700FFF7BBFF0222694648F2E9
:10509000FF00FFF7B5FF002008BD2DE9F0411546E0
:1050A0000F460446FFF755FD2820FFF7F2FDFFF7F6
:1050B0008BFD200AFFF7EDFDFFF786FDE0B2FFF75D
:1050C000E8FDFFF781FDFFF744FD2920FFF7E1FD33
:1050D000FFF77AFD00246E1E09E0B44201D00120E2
:1050E00000E00020FFF702FE3855641CE4B2AC4239
:1050F000F3D3BDE8F041FFF74BBD2DE9FC419248E9
:10510000816941F080018161904C206820F47F40EA
:105110002060206840F4605020608C4D083528687D
:1051200040F440602860FFF7ECFC894F0026C7F888
:10513000AC610A2007F5D67703F01FFA012038602A
:105140000A2003F01AFA206820F4706020602068BA
:1051500040F400602060286820F4806028606420AB
:1051600003F00BFA0422694648F24010FFF795FF5E
:105170008DF80460694677A012F0B2FC78A1684609
:1051800012F0A4FF10B10120BDE8FC8102208DF8CF
:10519000000048F24004012269462046FFF730FF34
:1051A00001226946E01DFFF778FF9DF80010602995
:1051B00005D26DA012F094FC0120FFF74AFF0A20EF
:1051C00003F0DBF98DF80060012269462046FFF705
:1051D00017FF0020D8E72DE9F147684D00244FF074
:1051E0000A0A287883B0401CC0B2B0FBFAF20AFB6E
:1051F0001201634EA046287009B10A2878D248F2FD
:105200004E19012203A94846FFF747FF9DF80C00FD
:105210004FF0000701060AD500F00F00062806D25D
:105220008DF80470012201A94846FFF7E9FE9DF8B8
:105230000C0001075CD000F00F01062958D2FF20B6
:1052400088408DF80400C04396F8209040F0C000DC
:1052500086F82000B089B082F08AF0834FF0010810
:1052600096F8201008FA04F0014226D035480422AE
:10527000B830694630F81400FFF70FFF96F8300099
:105280009DF80110C0079DF8000000EB012106EB1E
:1052900044000AD0C1829DF802109DF8032001EB62
:1052A0000221C1F54871818107E081819DF80210DA
:1052B0009DF8032001EB0221C182641CE4B2052C9D
:1052C000CED33049B2894FF001080B8830469A425C
:1052D00003D8C28A49888A4209D99DF80C1001F086
:1052E0000F0101290BD9C1898181018BF1822F70B6
:1052F0009DF80C0000F08F0080280AD018E0818A09
:105300008181C18BC18280218DF80C1086F820909C
:10531000EEE796F82000010602D520F0800005E0B7
:105320004FF6FF71B181F18200F0E00086F82000B5
:105330002878F02801D985F800A004B04046BDE8DF
:10534000F08700001866030800100240041C0140AA
:10535000008023424354502049443A25730D0A00EB
:10536000393134370000000044656661756C742083
:105370005665723A25640D0A0000000023000020E3
:105380002C000020B06F00202DE9F04115460E469C
:1053900004460027FFF7DDFBB220FFF77AFCFFF79A
:1053A00013FC200AFFF775FCFFF70EFCE0B2FFF7D5
:1053B00070FCFFF709FC002408E0305DFFF769FC92
:1053C000FFF702FC070003D1641CE4B2AC42F4D343
:1053D000FFF7DEFB3846BDE8F0812DE9F0411546C8
:1053E0000F460446FFF7B5FBB220FFF752FCFFF76C
:1053F000EBFB200AFFF74DFCFFF7E6FBE0B2FFF7FF
:1054000048FCFFF7E1FBFFF7A4FBB320FFF741FCEB
:10541000FFF7DAFB00246E1E09E0B44201D0012040
:1054200000E00020FFF762FC3855641CE4B2AC4297
:10543000F3D3BDE8F041FFF7ABBB08B500218DF811
:10544000001010B180208DF80000012269464FF451
:105450005060FFF799FF08BD38B56E4800258DF8FC
:105460000050816941F0800181616B48016821F43D
:105470007F410160016841F4605101606648083075
:10548000016841F440610160FFF73BFB634CC4F8E5
:10549000AC51642004F5D67403F06FF8012020604D
:1054A000642003F06AF80120FFF7C7FF0122694674
:1054B0004FF45060FFF791FF9DF8001058A012F0D4
:1054C0000FFB9DF80000802801D0012038BD00208E
:1054D00038BD2DE9F14F554F00244FF00A083878B8
:1054E00082B0401CC0B2B0FBF8F208FB1201504E73
:1054F0002546387009B10A2871D2012202A900207C
:10550000FFF76BFF9DF80800C1066CD000F01F008C
:1055100040F0C000DFF81CA1DFF81CB186F82000C5
:105520004FF0010996F8201009FA04F0014249D021
:1055300042480422694630F81400FFF74EFF96F8FF
:1055400030009DF80210C0079DF8030000EB012019
:105550001ED02EF038FD52465B462EF083FD2EF015
:1055600005FD06EB4405E8829DF801009DF800105A
:1055700000EB01202EF027FD314A324B2EF072FD58
:105580000022314B2EF0A2FE2EF0F0FCA88119E093
:105590002EF019FD52465B462EF064FD2EF0E6FC1F
:1055A00006EB4405A8819DF801009DF8001000EB72
:1055B00001202EF008FD224A224B2EF053FD2EF042
:1055C000D5FCE882641CE4B2052CABD30125B2897A
:1055D00000211AB9F08A08B98DF8081039709DF8C1
:1055E0000800C0060ED196F82000010602D520F072
:1055F000800005E04FF6FF71B181F18200F0E0001C
:1056000086F820003878F02801D987F800802846ED
:10561000BDE8FE8F00100240041C014000802342C0
:105620004354502049443A25780D0A0024000020B4
:105630002C0000207B14AE47E17AD43FDA660308E1
:10564000D881734694F6D23F000089402DE9F04797
:105650000024FF4EFF4F0546A0464FF001092806E3
:1056600001D5484600E04046C6F8A4016806050E8C
:10567000C7F88481012002F061FFC7F88491641C9F
:10568000E4B2082CEBD3BDE8F0872DE9F047002504
:10569000F04F2C462E46C7F88451DFF8B483C8F883
:1056A000A451C8F8AC5107F5C277FFF7CFFF062029
:1056B00002F044FF3E60012002F040FF4FF001097C
:1056C000C7F80090484602F039FF3E60B2464E46A9
:1056D0004FF6FF79A7F5C27709EA4404C7F884A119
:1056E000012002F02BFFC7F88461D7F8080108B148
:1056F000641CA4B26D1CEDB2102DEDD32009C8F8C6
:10570000AC61C0E7FEB5064600246D463046FFF7A3
:10571000BCFF25F81400641CA4B2052CF6D30021AC
:105720004C1CA0B20BE035F8113035F81020934234
:1057300003D925F8112025F81030401C80B2052827
:10574000F1D3A1B20429EBD30021012035F81020B8
:10575000401C114480B289B20428F7D30320B1FB66
:10576000F0F0FEBD2DE9F041BB4F06460D463878FE
:10577000FFF7C8FF04467878FFF7C4FF348028801D
:105780000120BDE8F08170B586B00C46054669463B
:1057900004A8FFF7E7FF00282FD001A903A8FFF70F
:1057A000E1FF002829D0BDF80C30BDF8102093424D
:1057B00003D803F13200824205D39A421FD802F186
:1057C000320083421BD2BDF80410BDF800008142B4
:1057D00003D801F13206B04204D388420FD83230E8
:1057E00081420CD2D01840082880BDF80000BDF8D6
:1057F0000410084440082080012006B070BD00203D
:10580000FBE72DE9F041044694480D460B46028023
:1058100004F10D0082B2193880B2FEF7BBFC05F12D
:105820000D0083B2193881B222461046FEF7B2FC51
:105830006E1C04F10108B1B21FFA88F0FBF7EFFA11
:10584000B1B2661EB0B2FBF7EAFA6F1EB9B21FFA28
:1058500088F0FBF7E4FAB9B2B0B2FBF7E0FA2946F8
:105860002046BDE8F0410622FEF7FABC70B50646B8
:105870007A480C4602803046FBF7D1FA751CA8B274
:105880002146FBF7CCFA641CA1B23046FBF7C7FAFD
:10589000A1B2A8B2BDE87040FBF7C1BA70B56C49BF
:1058A000D1F828116C4C241D41B194F82000010658
:1058B00041D520F0800084F8200043E002006648D3
:1058C00000F1040000F1160100F10C0002D0FFF716
:1058D0005AFF24E0FFF757FF08B3B4F92C002FF06C
:1058E000A3F80546A0892FF0B7F8616A2FF0C8F831
:1058F00029462EF0F3FE2FF077F8A081B4F92E00A0
:105900002FF092F80546E08A2FF0A6F8A16A2FF052
:10591000B7F829462EF0E2FE2FF066F8E08294F800
:10592000200000060ED4C02084F82000A089A082A8
:10593000E08AE08306E00020A082E0834FF6FF705B
:10594000A081E08294F8200000F0800070BD424900
:1059500010B50E2228312820FFF745F80A21BDE8AE
:1059600010403620FEF7D3BF10B53620FEF7AEFF4D
:105970000A2801D0002010BD37490E2228312820E6
:10598000FFF720F834489022001D90F83030001FB7
:10599000D02113B10270417001E00170427001200A
:1059A00010BD2DE9FF4F83B00E46DDE910A92B494C
:1059B00007464FF47840DDF85080088028A0102476
:1059C000CDE90040274D9346A0216B882A882820E6
:1059D000FEF78BFD24A0CDE900406B882A88A0212A
:1059E0007820FEF782FD21A0CDE900406B882A884F
:1059F000B4212820FEF779FD1DA0CDE900406B8879
:105A00002A88B4217820FEF770FD1AA0CDE9004065
:105A10006B882A88C8212820FEF767FD16A0CDE9EB
:105A200000406B882A88C8217820FEF75EFD13A00D
:105A3000CDE900406B882A88DC212820FEF755FD3F
:105A40000FA0CDE90040DC216B882A88782019E07E
:105A50000080234200802142280000201E000020F8
:105A600078313A00B06F002079313A0078323A004C
:105A700079323A0078333A0079333A0078343A0090
:105A800079343A00FEF731FDFEA0CDE900406B8885
:105A90002A88F0212820FEF728FD04233A46A02179
:105AA00040200094FEF797FC04233246A02190206A
:105AB0000094FEF790FC04235A46B4214020009441
:105AC000FEF789FC04230094B4219020069AFEF787
:105AD00082FC04235246C82140200094FEF77BFC40
